:020000040800F2
:10000000D8710020890200088B5E00082F210008AB
:10001000895E0008F10A0008097400080000000069
:1000200000000000000000000000000087610008E0
:10003000B50D000800000000856100081D62000881
:10004000A3020008A3020008A3020008A3020008FC
:10005000A3020008A3020008A3020008A3020008EC
:10006000A3020008A3020008A3020008A3020008DC
:10007000A3020008A3020008A3020008A3020008CC
:10008000A3020008A3020008A3020008A3020008BC
:10009000A3020008A3020008A3020008A3020008AC
:1000A000A3020008A3020008A3020008A30200089C
:1000B000A3020008A302000875620008A30200085A
:1000C000A3020008A3020008A3020008A30200087C
:1000D000A3020008DD730008A3020008A3020008C1
:1000E000A3020008A3020008A3020008A30200085C
:1000F000A3020008A3020008A3020008A30200084C
:10010000A3020008A3020008A3020008A30200083B
:10011000A3020008A3020008A3020008A30200082B
:10012000A3020008A3020008A3020008A30200081B
:10013000A3020008A3020008A3020008A30200080B
:10014000A3020008A3020008A3020008A3020008FB
:10015000A3020008A3020008A3020008A3020008EB
:10016000A3020008A3020008A3020008A3020008DB
:10017000A3020008A3020008A30200080000000078
:10018000A3020008A302000800F002F800F06DF8D6
:100190000AA090E8000C82448344AAF10107DA45E2
:1001A00001D100F062F8AFF2090EBAE80F0013F0C7
:1001B000010F18BFFB1A43F00103184750A90200B2
:1001C00070A902000A444FF0000C10F8013B13F034
:1001D000070408BF10F8014B1D1108BF10F8015BA0
:1001E000641E05D010F8016B641E01F8016BF9D193
:1001F00013F0080F1EBF10F8014BAD1C0C1B09D1EA
:100200006D1E58BF01F801CBFAD505E014F8016B5B
:1002100001F8016B6D1EF9D59142D6D370470000ED
:100220000023002400250026103A28BF78C1FBD8FF
:10023000520728BF30C148BF0B607047642900F0E7
:100240001781752900F01481782900F04D81632908
:1002500000F07283732900F07783002070471FB588
:100260000BF021F91FBD10B510BD00F0A7FB114622
:10027000FFF7F5FF09F064FA00F0C5FB03B4FFF7E0
:10028000F2FF03BC07F0ADFE09488047094800476C
:10029000FEE7FEE7FEE7FEE7FEE7FEE7FEE7FEE736
:1002A000FEE7FEE704480549054A064B7047000093
:1002B0002162000889010008D86B0020D871002055
:1002C000D86D0020D86D0020704753EA020C00F072
:1002D00069802DE9F04B4FF00006002B1FBFB3FAE9
:1002E00083F503FA05F424FA05F65E4012BF1643BF
:1002F000B2FA82F502FA05F4C5F120051EBF22FA12
:1003000005FC44EA0C04203556EA044C4FEA144438
:1003100018BF641C4FF000084FF00009904271EBC9
:10032000030C39D3002919BFB1FA81F701FA07F696
:10033000B0FA80F700FA07F6C7F120071EBF20FACF
:1003400007FC46EA0C062037B6FBF4FCA7EB0507D2
:10035000103F07F01F0BCBF120060CFA0BFB2CFA19
:1003600006F644BFB3460026202FA4BF5E464FF0DA
:10037000000B5BEA060C08BF4FF0010B19EB0B09F1
:10038000ABFB027C48EB0608C01B06FB02CC0BFB58
:1003900003CC71EB0C01C1E70B46024641464846CF
:1003A000BDE8F08B13B54FF000004FF00001AFF344
:1003B0000080BDE81C4070470FB4044910B503AA83
:1003C000029800F0C5FA10BC5DF814FB180000207C
:1003D00070B5044685690068C10601D5302600E085
:1003E0002026C00707D070BDD4E9012130469047D0
:1003F000206A401C20626D1EF6D570BD70B50446A3
:1004000085690078C00707D170BDD4E9012120209B
:100410009047206A401C20626D1EF6D570BD70B5F5
:100420000C460546012A05D02878800600D5EA69E1
:10043000002302E0012305E05B1C934202D2E05C52
:100440000028F9D1A869E618C01AA861286A1844DA
:1004500028622846FFF7BCFF04E0D5E9012114F823
:10046000010B9047B442F8D32846FFF7C7FF70BD91
:100470002DE9F0410646002410687529314616A57D
:1004800010D0AFF30080002802DA404213A507E045
:1004900031688A0701D512A502E0490704D511A5E4
:1004A000012401E0AFF3008000210A2206F12407B5
:1004B00009E0B0FBF2FCB0FBF2F302FB1C003030B1
:1004C00078541846491C0028F3D123462A46304662
:1004D000BDE8F04100F0CDB9000000002D000000A3
:1004E0002B0000002000000070B504460D46214698
:1004F0001068AFF300802188090502D50F4A7A44BD
:1005000002E00E4A7A440E32002104F1240305E091
:1005100000F00F060009965D5E54491C0028F7D1D3
:1005200020780023000704D5702D02D009B10223E2
:1005300011322046BDE8704000F09BB98EA4020045
:100540002DE9F05F894604464FF0000ADFF874B1E8
:10055000FB44C0F820A02046E1688847002874D0FA
:10056000252806D0D4E901219047206A401C20624A
:10057000F1E700265F462046E168884720280546C7
:1005800007DB312D05D2781910F8200C08B106438D
:10059000F1E7B00701D526F00406C4F81CA0002737
:1005A000C4F818A02A2D09D0284607F0F5F938B369
:1005B00004EB8708303DC8F8185019E059F8041BBF
:1005C000204604EB87029161E1688847012F0546C8
:1005D00018D1E069002820DA26F020061DE0D8F8BE
:1005E000180000EB800005EB40003038C8F8180018
:1005F0002046E1688847054607F0CEF90028EED18D
:10060000012F0AD02E2D08D12046E16888477F1C93
:100610000546022F46F02006C4DBA069002803DA55
:10062000404246F00106A061F00701D026F0100616
:100630006C2D0BD0682D09D04C2D39D06A2D35D0BA
:10064000742D35D07A2D33D016E038E0E1682F468E
:1006500020468847B842054609D16C2F26D04FF472
:100660008060E168064320468847054604E06C2F19
:100670001AD04FF4807006430DB3A5F1410019283C
:1006800002D8203546F400664A46294620462660B0
:100690004E46FFF7D3FD80B101280BD0F61D26F0A2
:1006A000070000F1080956E74020E4E78020D8E77A
:1006B0000020D6E706F104094DE7284652E7206AF4
:1006C000BDE8F09F64A4020040EA010310B59B0757
:1006D0000FD1042A0DD310C808C9121F9C42F8D0AC
:1006E00020BA19BA884201D9012010BD4FF0FF305D
:1006F00010BD1AB1D30703D0521C07E0002010BD73
:1007000010F8013B11F8014B1B1B07D110F8013BFE
:1007100011F8014B1B1B01D1921EF1D1184610BDDF
:1007200010B5203AC0F00B80B1E81850203AA0E88C
:100730001850B1E81850A0E81850BFF4F5AF5FEAC0
:10074000027C24BFB1E81850A0E8185044BF18C973
:1007500018C0BDE810405FEA827C24BF51F8043B1A
:1007600040F8043B08BF7047D20728BF31F8023B6E
:1007700048BF11F8012B28BF20F8023B48BF00F802
:10078000012B70474FF0000200B513469446964681
:10079000203922BFA0E80C50A0E80C50B1F1200194
:1007A000BFF4F7AF090728BFA0E80C5048BF0CC042
:1007B0005DF804EB890028BF40F8042B08BF7047A0
:1007C00048BF20F8022B11F0804F18BF00F8012B12
:1007D000704700004FF0013C50F8042B51F8043BE7
:1007E0009A4221D1A2EB0C03934313EACC1317D105
:1007F00050F8042B51F8043B9A4215D1A2EB0C039C
:10080000934313EACC130BD150F8042B51F8043B5B
:100810009A4209D1A2EB0C03934313EACC13DBD029
:100820004FF00000704700BFD01A01BAB1FA81F151
:1008300001F0180122FA01F0CB40C1F12001DBB236
:10084000C0B2C01A2CFA01F3D11A914311EAC311B4
:10085000E6D17047704770477047704710B500F099
:100860008DF8006810BD10B5044600F087F80460EC
:1008700010BD2DE9F0470D4699469246044600F119
:1008800024080168880604D5E06921F01001216080
:1008900000E00120A84201DD471B00E00027A1691C
:1008A0007A1902EB0900081AA0612078C00602D468
:1008B0002046FFF78DFD002608E0D4E901211AF853
:1008C00006009047206A401C761C20624E45F4DBEF
:1008D0002078C0060AD52046FFF77AFD06E0D4E965
:1008E000012130209047206A401C2062381EA7F169
:1008F0000107F4DC07E0D4E9012118F8050090476E
:10090000206A401C2062281EA5F10105F3DC204668
:10091000FFF774FD2078000602D50220BDE8F087BD
:100920000120FBE710B5436913B1AFF3008001E08C
:10093000FFF775FD012010BD127800F124010A7047
:1009400000224A700122EDE711684FF0FF32E9E71B
:10095000074B70B50D467B4400F019F80446284655
:1009600000F028F810B14FF0FF3070BD204670BD88
:10097000278C000000487047786B002000487047C3
:10098000786B002001694A1C02610878704700B545
:100990008FB0CDE901310021059105497944CDE9B8
:1009A000031011466846FFF7CBFD0FB000BD0000F5
:1009B000E5FFFFFF007B00F0800070477546FFF702
:1009C000D9FFAE4605006946534620F0070085462C
:1009D00018B020B5FFF766FCBDE820404FF00006D8
:1009E0004FF000074FF000084FF0000B21F0070117
:1009F000AC46ACE8C009ACE8C009ACE8C009ACE85A
:100A0000C0098D46704710B50446AFF300802046FC
:100A1000BDE81040FFF732BC01F0AABB2DE9F04160
:100A20000D460146002004464E1908E00702301B1F
:100A3000401E80B200F007F8641C3844E4B2AC42B7
:100A4000F4D3BDE8F08110B5044601F039FC200A6A
:100A5000A02101EB4000C0B201F002FC01F072FCE9
:100A6000E0B201F0FDFB01F06DFC01F029FCA120DA
:100A700001F0F6FB01F066FC002001F0BDFB04462E
:100A800001F03EFC204610BD2DE9F04116460D4612
:100A90000746002409E0E00025FA00F0C1B2381949
:100AA00080B200F006F8641CE4B2B442F3D3BDE8AF
:100AB000F08170B50D46044601F002FC200AA02129
:100AC00001EB4000C0B201F0CBFB01F03BFCE0B217
:100AD00001F0C6FB01F036FC284601F0C1FB01F035
:100AE00031FC01F00DFCBDE870400A2007F0E8BFC2
:100AF000FEE7000070B50F4C0025C4F880520E4888
:100B0000016821F440010160016841F48001016045
:100B1000022004F5207407F0E1FF0848C0F8AC5249
:100B2000022007F0DBFF01202060022007F0D6FF43
:100B3000256070BD008040420014024000804242A7
:100B4000154810B5016886B041F0020101600168E6
:100B500001F002010591016841F020010160006887
:100B6000012400F02000009405900320CDE902400C
:100B700001946946094800F0C9FCE002009069460A
:100B8000074800F0C3FC0748C0F8AC420648C0F86C
:100B9000804206B010BD0000303802400004024020
:100BA00000140240008042420080404270B50F4C69
:100BB0000026C4F880620E48016821F440010160FB
:100BC000016841F480010160022004F5207407F0FF
:100BD00085FF08480125C0F8AC52022007F07EFFCF
:100BE0002560022007F07AFF266070BD0080404239
:100BF00000140240008042422DE9F0478246174827
:100C00000024016821F440010160016801601E2098
:100C100007F064FF0025124EDFF848902F464FF092
:100C20000108C6F88072022007F058FFC6F88082DB
:100C30006006040ED9F82C0208B1641CE4B26D1CE5
:100C4000EDB2082DEDD3BAF1000F04D0FFF752FF3B
:100C50002046BDE8F087FFF7A9FFF9E7001402403E
:100C600000804042008042422DE9F0470546154889
:100C7000016821F440010160016841F480010160D4
:100C8000114E0027C6F88072022007F027FFDFF818
:100C90003C8000244FF00109E909C8F8AC1268064D
:100CA000050EC6F88092022007F018FFC6F8807281
:100CB000022007F013FF641CE4B2082CECD3BDE85B
:100CC000F087000000140240008040420080424251
:100CD00070B50F48016821F440010160016841F4DA
:100CE000800101600B4E0120C6F8AC020A4DC5F828
:100CF00080021E2005F5207506F52B7607F0EEFE26
:100D000000243460022007F0E9FE2C6070BD000072
:100D100000140240008042420080404270B50D48FD
:100D2000016821F440010160016841F48001016023
:100D300009480125C0F880521E2007F0CFFE074C5D
:100D40000020C4F8AC02022004F52B7407F0C6FEA4
:100D5000256070BD00140240008040420080424285
:100D600070B511480024016821F440010160016858
:100D700001600E4D0120C5F8AC020D4EC6F8800290
:100D800007E0641CE4B2FA2C03D9FFF7C7FF012087
:100D900070BD022007F0A2FED5F82C020028F0D189
:100DA000C6F8800270BD000000140240008042427C
:100DB000008040427047000070B5B3F5804F05D009
:100DC0006FF0704140F82210002070BD50F82230C2
:100DD000084C2340D1E9004544EA05148D688E890A
:100DE0002D0245EA064589692C430C431C4340F813
:100DF0002240E9E70000F0CFF0B50C6850F824502D
:100E0000114A1540D1E90123D1E903671A433E4352
:100E100032434E6932438E693243CE6932430E6AA1
:100E200032434E6A32438E6A3243CE6A3243CE6BCD
:100E3000096B32430A432A43082B01D142F0400296
:100E400040F824200020F0BD8000F0FF30B500EB1A
:100E500082004268D1E9003443EA04138C688D892A
:100E6000240244EA054423430C8A084D02F0404220
:100E700005EB045423430C7D6D0105EB0464896983
:100E800023430B4313434360002030BD0000F0FFB9
:100E900070B5324888B00024016841F00201016059
:100EA000016801F002010691016841F0040101604E
:100EB0000068012500F00400069002208DE8310052
:100EC000032003906946264800F020FB6803CDE923
:100ED00000056946234800F019FBFFF731FE224E5A
:100EE000C6F8B442142006F52D7607F0E9FD35600A
:100EF000322007F0E5FD8DF81440012205A90020FD
:100F000000F000F9012205A9A42000F0FBF816204A
:100F10008DF81400012205A9802000F0F3F80C20C0
:100F20008DF81400012205A9882000F0EBF80222B8
:100F300005A9A12000F020F89DF81400302803D165
:100F40009DF81500032802D0012008B070BD43F2BF
:100F5000030106A0FFF730FA0020F6E73038024020
:100F60000004024000080240000041424354502067
:100F700049443A25780D0A002DE9F04115460F46FF
:100F80000446FFF7A5FE7020FFF76EFEFFF7E8FEB0
:100F9000E0B2FFF769FEFFF7E3FEFFF799FE71206D
:100FA000FFF762FEFFF7DCFE00246E1E09E0B4428C
:100FB00001D0012000E00020FFF71EFE3855641C20
:100FC000E4B2AC42F3D3BDE8F041FFF7A7BE0000A6
:100FD0002DE9F143484F00244FF00A09387882B0D8
:100FE000401CC0B2B0FBF9F209FB1201434DA04610
:100FF000387009B10A2863D2012202A90220FFF742
:10100000BBFF9DF8080001075AD000F00F0006282A
:1010100056D2FF218140C84340F0C00085F820002F
:101020004FF00108002695F8201008FA04F001425C
:1010300039D033480422694630F81400FFF79CFF8A
:1010400095F830009DF80010C0079DF8010001F0F0
:101050000F010ED000EB012105EB4400C1829DF889
:1010600002209DF8031002F00F0201EB02218181A2
:101070000FE000EB0120C0F5F07105EB4400818129
:101080009DF802209DF8031002F00F0201EB0221EF
:10109000C1829DF800000821B1EB101F03D005EBC1
:1010A0004400C6828681641CE4B2052CBBD3A989A6
:1010B0004FF0010819B9E88A08B98DF808603E7048
:1010C0009DF80800C0060ED195F82000010602D553
:1010D00020F0800005E04FF6FF71A981E98200F061
:1010E000E00085F820003878F02801D987F80090D2
:1010F0004046BDE8FE830000250000202C000020B3
:1011000008FC00082DE9F04115460E46044600276C
:10111000FFF7DEFD7020FFF7A7FDFFF721FEE0B22D
:10112000FFF7A2FDFFF71CFE002408E0305DFFF78B
:101130009BFDFFF715FE070003D1641CE4B2AC422F
:10114000F4D3FFF7EBFD3846BDE8F0812DE9F0431D
:101150003C4889B00024016841F002010160016847
:1011600001F002010791016841F00401016000688B
:10117000022600F00400079001AA0125032700962B
:10118000DFF8C49082E8B0006946484600F0BEF936
:101190006803CDE9000569462C4800F0B7F9FFF770
:1011A000CFFCDFF8AC80C8F8B4420A2007F088FC16
:1011B000C8F8B4520A2007F083FC03970096CDE9E3
:1011C00001546946484600F0A1F9642007F078FC14
:1011D000042205A948F2401000F050F88DF818409C
:1011E00005A91CA0FFF7E8F81DA105A8FFF7F2FA72
:1011F00018B1012009B0BDE8F08348F240058DF830
:101200001460012205A9284600F044F9012205A92D
:10121000E81D00F033F89DF81410602905D212A0E3
:10122000FFF7CAF8012000F00FF90A2007F048FC88
:101230008DF81440012205A9284600F02BF9002062
:10124000D8E70000303802400004024000080240A5
:10125000000041424354502049443A25730D0A008E
:10126000393134370000000044656661756C7420C4
:101270005665723A25640D0A000000002DE9F04120
:1012800015460F460446FFF723FD2820FFF7ECFC28
:10129000FFF766FD200AFFF7E7FCFFF761FDE0B20C
:1012A000FFF7E2FCFFF75CFDFFF712FD2920FFF7D7
:1012B000DBFCFFF755FD00246E1E09E0B44201D0AF
:1012C000012000E00020FFF797FC3855641CE4B2D1
:1012D000AC42F3D3BDE8F041FFF720BD2DE9F14763
:1012E000554D00244FF00A0A287883B0401CC0B244
:1012F000B0FBFAF20AFB1201504EA046287009B169
:101300000A286ED248F24E19012203A94846FFF777
:10131000B5FF00278DF80470012201A9484600F0AE
:10132000B9F89DF80C0001075BD000F00F01062909
:1013300057D2FF2088408DF80400C04396F82090D3
:1013400040F0C00086F82000B089B082F08AF083B7
:101350004FF0010896F8201008FA04F0014225D059
:1013600037480422694630F81400FFF787FF96F8E3
:1013700030009DF80110C0079DF8000000EB01212E
:1013800006EB44000AD0C1829DF802109DF80320AC
:1013900001EB0221C1F54871818107E081819DF84F
:1013A00002109DF8032001EB0221C182641CE4B20B
:1013B000052CCFD32349B2894FF001080B88304662
:1013C0009A4203D8C28A49888A4209D99DF80C10EA
:1013D00001F00F0101290BD9C1898181018BF182B3
:1013E0002F709DF80C0000F08F0080280AD01AE0C2
:1013F000818A8181C18BC18280218DF80C1086F891
:101400002090EEE796F82000010603D520F080003A
:1014100086F820004FF6FF7026F80C0F7081307DA3
:1014200000F0E00030752878F02801D985F800A098
:1014300004B04046BDE8F087260000202C000020C4
:10144000CAFC00082016002008B500218DF8001005
:101450008DF801000E489DF80020435C491C1A4499
:10146000C9B28DF80020B829F5D3D0B2C043401CD2
:101470008DF80000B822064948F2470000F00AF84B
:101480000222694648F2FF0000F004F8002008BD7F
:1014900012FC00082DE9F04115460E4604460027CF
:1014A000FFF716FC2820FFF7DFFBFFF759FC200AA7
:1014B000FFF7DAFBFFF754FCE0B2FFF7D5FBFFF7CD
:1014C0004FFC002408E0305DFFF7CEFBFFF748FC3F
:1014D000070003D1641CE4B2AC42F4D3FFF71EFC56
:1014E0003846BDE8F08190F83510022903D08021FC
:1014F000416501207047052180F8351000680168BA
:1015000021F0010101600020704700002DE9F84F33
:10151000DFF88C91002209F1040A0AF1040B4FF064
:101520000F080BF1040E01260B6896403340B342BE
:1015300071D14C68022C01D0122C11D1D40800EBCF
:1015400084073D6A5407E40E08FA04FC25EA0C05FA
:10155000D1F810C00CFA04FC4CEA050CC7F820C006
:1015600007685400032591F804C0A5400CF0030C53
:10157000AF430CFA04FC4CEA070CC0F800C04F68FB
:10158000012F05D0022F03D0112F01D0122F11D11E
:101590008768D1F80CC0AF430CFA04FC4CEA070C86
:1015A000C0F808C04768B7430E79C6F300169640E6
:1015B0003E434660C668AE438D68A5403543C5606E
:1015C0004C68E40065D5374C256845F480452560B6
:1015D000246822F0030504F480440094324C2E1950
:1015E000D6F808789407250F08FA05F4A7432F4C7E
:1015F000A04201D1002424E02D4CA04201D10124BD
:101600001FE02C4CA04201D102241AE02A4CA04237
:1016100002D1032415E03CE0284CA04201D104246F
:101620000FE0274CA04201D105240AE0254CA0423E
:1016300001D1062405E0244CA04201D1072400E09A
:101640000824AC403C43C6F80848D9F800404D4651
:101650004E689C43F60300D51C432C60DAF800402A
:1016600055464E689C43B60300D51C432C60DBF8FE
:1016700000405D464E689C43F60200D51C432C603A
:10168000DEF8004075464E689C43B60200D51C4308
:101690002C60521C102AFFF446AFBDE8F88F000002
:1016A000003C01404438024000300140000002404C
:1016B0000004024000080240000C024000100240FA
:1016C0000014024000180240001C0240006908405B
:1016D00000D0012070470AB1816170470904FBE71F
:1016E00001480068000C7047002004E00148806851
:1016F000704700000400002002488168027811440D
:101700008160704704000020094810B5016841F469
:1017100000710160016841F480610160052000F002
:1017200057F80F2000F006F800F024F8002010BD54
:10173000003C024070B50D4D04464FF47A71287894
:10174000B1FBF0F00A490968B1FBF0F000F058FB7A
:1017500048B9102C07D200222146501E00F018F87C
:1017600000206C6070BD012070BD000004000020EE
:10177000000000207047002809DB00F01F02012153
:1017800091404009800000F1E020C0F8001170474E
:10179000F0B40E4B1B68C3F30223C3F10704042CFF
:1017A00000D904241D1D072D01D2002300E0DB1EFB
:1017B000012606FA04F56D1E0D409D409E40761EE2
:1017C000164045EA0601F0BC05F032BE0CED00E023
:1017D000064A00F0070110684FF6FF03184040EA80
:1017E0000120034908431060704700000CED00E041
:1017F0000000FA052DE9F0470D46040065D0DFF83A
:101800001491D9F80000EFB200F00F00A84207D2FF
:1018100089F80070D9F8000000F00F00A84254D1F8
:1018200020683D4E810712D5400703D5306840F44B
:10183000E05030602078000703D5306840F4604005
:1018400030603068A16820F0F000084330602078F4
:10185000C0072DD0304960680839012812D002280D
:1018600013D0032811D00968890700292DDA3168BF
:1018700021F0030101433160FFF738FF804641F258
:10188000883A0EE009688903EFE709688901ECE707
:10189000FFF72CFFA0EB0801514502D90320BDE85A
:1018A000F0873068616800F00C00B0EB810FEFD179
:1018B000D9F80010484601F00F01A94207D9077076
:1018C000006800F00F00A84201D00120E7E720786F
:1018D000400705D53068E16820F4E05008433060E7
:1018E0002078000706D53068216920F4604040EA7E
:1018F000C100306000F036F83168084AC1F30311C6
:10190000515CC840064908600F20FFF713FF002014
:10191000C5E70000003C024008380240B0B40008AF
:10192000000000200448054900680968044AC1F322
:101930008221515CC84070470000002008380240F6
:10194000C0B400080448054900680968044AC1F3A6
:101950004231515CC8407047000000200838024006
:10196000C0B40008154810B5006810F00C01144808
:1019700013D0431004290FD008290ED10F4C241F77
:10198000216801F03F022168490207D52068C0F3B1
:101990008810A0FB030106E0184610BD2168C1F3C2
:1019A0008811A1FB00010023FEF78FFC2168C1F321
:1019B0000141491C4900B0FBF1F010BD083802405C
:1019C0000024F4002DE9F84F040073D02078BD4DB9
:1019D000C00748D0BB4808300168C1F38101012924
:1019E00008D00068C0F3810002280AD1281D0068D1
:1019F000400206D52868800335D560680028E4D009
:101A000031E06068B0F5803F10D0B0F5A02F2868B5
:101A100010D020F480302860286820F480202860CE
:101A20006068A0B1FFF762FE06460CE0286840F44B
:101A30008030F4E740F480202860F7E7FFF756FE97
:101A4000801B642872D828688003F7D50BE0FFF765
:101A50004DFE064604E0FFF749FE801B6428F1D8DE
:101A600028688003F7D42078DFF85C9280074FF075
:101A7000000A3ED593480830016811F00C0F09D0D8
:101A80000068C0F3810002280BD18E48001D006859
:101A9000400206D42868800715D5E068012809D1DE
:101AA00011E0E068B8B10120C9F80000FFF71EFEA0
:101AB000064605E003E1FFF719FE801B0228C1D8A6
:101AC00028688007F7D52868216920F0F80040EAE7
:101AD000C10028600DE0C9F800A0FFF707FE064628
:101AE00004E0FFF703FE801B02281FD82868800748
:101AF000F7D42078000722D5724F74496069743793
:101B000070B101200860FFF7F1FD064604E0FFF721
:101B1000EDFD801B022809D838688007F7D50EE054
:101B2000C1F800A0FFF7E2FD064605E081E0FFF7FF
:101B3000DDFD801B02287CD838688007F7D4207828
:101B4000400769D5DFF87CB14FF000080BF1400B7E
:101B5000DBF80000C0000CD4DBF8001041F080512D
:101B6000CBF80010DBF800004FF0010800F08050C7
:101B70000090574F3868C0050FD4386840F4807023
:101B80003860FFF7B3FD064604E0FFF7AFFD801BAA
:101B900002284ED83868C005F7D54A4FA06870377C
:101BA00001280FD00528386810D020F001003860D7
:101BB000386820F004003860A068B0B1FFF796FDE7
:101BC00006460EE0386840F00100F4E740F00400FB
:101BD0003860F7E7FFF78AFD811B41F288308142C8
:101BE00065D838688007F5D50DE0FFF77FFD06461C
:101BF00006E0FFF77BFD811B41F28830814256D819
:101C000038688007F5D4B8F1000F05D0DBF8001074
:101C100021F08051CBF80010A069C8B329490831E0
:101C20000968C1F38101022949D00228504607D032
:101C300000E03CE0C9F86000FFF758FD044639E0D9
:101C40004F46C9F86000FFF751FD064604E0FFF774
:101C50004DFD801B02282AD828688001F7D4D4E9DA
:101C600007010843A16A1B4A490802EB0141626A65
:101C700041EA8211084394F82C1040EA01611148AE
:101C8000001D016001203866FFF730FD044605E0C5
:101C900013E0FFF72BFD001B022808D828688001FD
:101CA000F7D50AE0FFF722FD001B022802D9032026
:101CB000BDE8F88F28688001F4D40020F8E70120FF
:101CC000F6E700000038024000004742800E47421D
:101CD000007000400000FFFF70B515460E4604007E
:101CE00003D094F8490010B107E0012070BD002036
:101CF00084F84800204600F01BF804F10801206831
:101D0000FFF77AF83146A2682068FFF79FF8D4E918
:101D100001022946236BFFF74FF8A168206850F8AD
:101D2000212042F0010240F82120002070BD000077
:101D3000284810B5016886B041F0010101600068D3
:101D400000F00100059023480838016841F00801BF
:101D50000160016801F008010591016841F010017E
:101D60000160016801F010010591016841F0200156
:101D70000160016801F020010591016841F0400116
:101D800001600068694600F0400005904CF2337035
:101D900000900220019001200290032003900C206B
:101DA00004900D48FFF7B2FB4FF680700090694633
:101DB0000A48FFF7ABFB4FF480546946084800948B
:101DC000FFF7A4FB694607480094FFF79FFB06B0A6
:101DD00010BD000038380240000C024000100240E4
:101DE00000140240001802404FF0E0210428086966
:101DF00003D020F004000861704740F00400FAE7C7
:101E000010B5401EB0F1807F01D3012010BD4FF00E
:101E1000E02460610F21601705F00AFB0020A0613B
:101E200007202061002010BD10B5040003D094F8F5
:101E30003D0010B107E0012010BD002084F83C00F7
:101E4000204600F00CF8022084F83D00211D206897
:101E500004F02AFA012084F83D00002010BD7047EC
:101E60000168CA6842F00102CA600068816801F036
:101E70000701062903D0016841F00101016000203B
:101E80007047704710F8391F4078084370470000CA
:101E900070B5026804461068D168536910F00F0FDE
:101EA00050D003F0010501F4907635435DD0C207B0
:101EB00005D0CA0503D5E26B42F00102E263420796
:101EC00005D5DA0703D0E26B42F00202E263820733
:101ED00005D5DA0703D0E26B42F00402E2630207A1
:101EE00005D5DA0703D0E26B42F00802E263E26B49
:101EF000002A33D0800604D5880602D5204605F096
:101F000099F820684069E16BC0F38010090700D49C
:101F100028B3204605F080F82068416949061AD5A3
:101F2000416921F040014161606BA0B11B4901652D
:101F3000606BFFF7D8FA002810D0606B016DBDE828
:101F400070400847830610D58B060ED52046BDE8A5
:101F5000704005F06FB82046FFF793FF70BD204634
:101F6000FFF78FFF0020E06370BD030606D50B0668
:101F700004D52046BDE8704005F0FEB94006F3D513
:101F80004806F1D5D168204621F04001D1602021DA
:101F900084F8391000F0CAF870BD0000097000081C
:101FA00070B5040004D094F83900002510B106E0A3
:101FB000012070BD84F83850204600F023F824201A
:101FC00084F839002068C16821F40051C1602046BE
:101FD00005F07CF82068016921F4904101612068D6
:101FE000416921F02A0141612068C16841F4005132
:101FF000C160E563202084F8390084F83A000020AD
:1020000070BD000010B500681A4986B088422FD113
:102010001948016841F001010160006800F0010009
:10202000059015481430016841F010010160006806
:10203000012100F0100005904FF400700090022084
:10204000CDE90101039007200C4C0490694620461D
:10205000FFF75CFA2115009169462046FFF756FA12
:102060002520FFF788FB032211462520FFF790FB70
:1020700006B010BD001001403038024000000240A0
:1020800090F83A30202B22D1F9B1F2B190F83830E3
:10209000012B1CD081628285C2850021C16322226E
:1020A00080F83A2080F838100168CA6842F48072DB
:1020B000CA6001684A6942F001024A610068C16869
:1020C00041F02001C16000207047012070470220CC
:1020D0007047000030B50068114988420CD1114AA0
:1020E0005088010408D41146440409784FF00003D5
:1020F00006D50A2901D0538030BD40F400400DE0E0
:102100000D2909D0C0F30D04074D401C80B229559C
:102110005080C728EFD830BD40F48040508030BD9B
:102120000010014014000020C81400207047FEE792
:1021300070B50D4C0025C4F8A0520C48016821F47C
:1021400040210160016841F480210160C4F8A4527B
:10215000022004F5287406F0C1FC01202060022052
:1021600006F0BCFC256070BD0080404200040240C7
:102170000E4810B5016886B041F0020101600068A8
:10218000012400F0020005904FF44070CDE90004F6
:102190000220CDE9024069460548FFF7B7F9054836
:1021A000C0F8A442C0F8A04206B010BD30380240CA
:1021B000000402400080404270B50D4C0026C4F877
:1021C000A0620C48016821F440210160016841F4DB
:1021D000802101600125C4F8A452022004F528746E
:1021E00006F07CFC2560022006F078FC266070BDBD
:1021F00000804042000402402DE9F0478146164825
:102200000024016821F44021016001680160134E3F
:10221000254627464FF00108C6F8A072022006F0B6
:102220005DFCC6F8A0826006040ED6F8240208B150
:10223000641CE4B2012006F051FC6D1CEDB2082DC7
:10224000EAD3B9F1000F04D0FFF772FF2046BDE8D2
:10225000F087FFF7B1FFF9E7000402400080404239
:102260002DE9F04105461448016821F44021016040
:10227000016841F480210160104E0027C6F8A07269
:102280003C464FF00108E809C6F8A4026806050EAE
:10229000022006F023FCC6F8A082022006F01EFCF5
:1022A000C6F8A072022006F019FC641CE4B2082CE7
:1022B000E9D3BDE8F0810000000402400080404204
:1022C00070B50D48016821F440210160016841F4B6
:1022D00080210160094C0120C4F8A402C4F8A002C6
:1022E000042004F5287406F0F9FB0025656004203D
:1022F00006F0F4FB256070BD0004024000804042FF
:102300000E4810B5016821F440210160016841F4D4
:10231000802101600A4C0020C4F8A002C4F8A40285
:10232000042004F5287406F0D9FB012020606060C9
:10233000BDE81040042006F0D1BB000000040240BC
:102340000080404270B512480024016821F4402109
:102350000160016801600F4D0126C5F8A462304696
:1023600006F0BCFBC5F8A062012006F0B7FB07E051
:10237000641CE4B2FA2C03D9FFF7C2FF012070BD40
:10238000D5F824020028F3D1C5F8A00270BD0000E2
:10239000000402400080404270B5144886B0002519
:1023A000016841F001010160016801F0010105913E
:1023B000016841F0100101600068032400F0100082
:1023C000059002200126CDE90204CDE900656946A9
:1023D0000748FFF79BF81C2003948DE861006946CD
:1023E0000448FFF793F806B070BD00003038024093
:1023F00000000240001002402DE9F04101262E4C61
:102400002E4F2F4D01281DD02078A0B11021284635
:10241000FFF75CF9C0B108212846FFF757F998B1DA
:1024200004212846FFF752F970B101213846FFF721
:102430004DF9012808D010212846FFF747F9012857
:1024400026D037E02670E1E70A2006F039FB0020AD
:10245000207010212846FFF739F980B1082128465D
:10246000FFF734F970B104212846FFF72FF958B16E
:1024700001213846FFF72AF9012807D01AE0012088
:10248000BDE8F0810220FBE70320F9E70420F7E72D
:1024900008212846FFF71AF901280BD10421284604
:1024A000FFF714F9012805D101213846FFF70EF98D
:1024B00000B926700020E3E724000020000002405D
:1024C000001002402DE9F0431A4E81460024308866
:1024D00075884543B088A0F5D041043903D0A0F5F4
:1024E0001441813902D1B07901280AD0002108466F
:1024F00003F052FA03F000FC1FFA89F04FF0D841C4
:1025000013E00020B0712A2777814FF02B08A6F83E
:102510000C80014603F040FA0120B071A6F80A8051
:10252000B781E7E7A1F88000641CAC42FAD3BDE8AC
:10253000F0830000201600202DE9F04F6D492A237A
:102540002B24F027898847F2897945F2105A4FF4F5
:10255000305B4FF4285E4FF4487549F2413C4FF42C
:10256000A0767A0080B363484FF00108614580F897
:1025700006800680478022D0A1F5A647103F1ED0D6
:1025800049451CD0A1F51447863F18D0A1F5144742
:10259000883F14D0A1F5EE47963F10D0A1F5D04763
:1025A000043F72D0A1F51447813F6ED0514570D1E0
:1025B000A0F808B0A0F80AE02302838190E02C255F
:1025C0000581438184816EE0FFE74A484FF00008AF
:1025D000614580F806800780468023D0A1F5D0476A
:1025E000043F1FD0A1F5A647103F1BD0A1F514470B
:1025F000813F17D0494515D0A1F51447863F11D02A
:10260000A1F51447883F0DD0A1F5EE47963F09D0BC
:10261000514526D1A0F808B0A0F80AE04FF42C519B
:1026200081812DE02C2505814381A1F5D043848152
:10263000043B13D0A1F5A643103B0FD0A1F51443E2
:10264000813B0BD0A1F51443863B07D0A1F5144381
:10265000883B03D0A1F5EE43963B46D106804280ED
:1026600043E0A1F5C856633E06D022210181202116
:1026700041812121818138E02C21018144818381A4
:102680000280458031E000E003E02C250581448193
:1026900008E0A1F5C857633F1ED022230381212300
:1026A000438120238381A1F5D043043B1BD0A1F5B6
:1026B000A643103B17D0A1F51443813B13D0A1F5DD
:1026C0001443863B0FD0A1F51443883B0BD0A1F5F2
:1026D000EE43963B07D008E02C2707814381848195
:1026E00005804280DFE702804680BDE8F04F002091
:1026F00003F02CB8201600202DE9FE4F0026A2EB97
:10270000000882465F1A701E35468946B8F1000FF0
:1027100002DD4FF0010102E003D14FF00001019111
:1027200002E0C8F100080190002F02DD4FF0010027
:1027300002E003D14FF00000009002E0C7F1000773
:1027400000904046B84501DD044600E03C46601C70
:102750004FF0000B029015E01FFA89F11FFA8AF082
:1027600000F016F846443D44A64202DD0199361BAE
:102770008A44A54202DD00992D1B89440BF101001A
:102780001FFA80FB02998B45E6DDBDE8FE8F000055
:1027900000B503F001F903F0AFFA03484FF0D84158
:1027A0000088A1F8800000BD1C000020F0B51C4688
:1027B00015460E4607460B46FFF79EFF3A46234650
:1027C00031461046FFF798FF23462A4619463846F9
:1027D000FFF792FF2A4623463146BDE8F0401046F7
:1027E000FFF78ABF2DE9FC4F8046002415460320E1
:1027F0000F46A0EB450649E0781B81B208EB040ABE
:1028000001901FFA8AF0FFF7C3FF381B81B208EB73
:10281000050900901FFA89F0FFF7BAFF07EB040BD8
:102820001FFA8BF11FFA89F0FFF7B2FF07EB0509DA
:102830001FFA89F11FFA8AF0FFF7AAFFA8EB040A32
:102840001FFA89F11FFA8AF0FFF7A2FFA8EB05092A
:102850001FFA8BF11FFA89F0FFF79AFF019881B2F6
:102860001FFA8AF0FFF794FF009881B21FFA89F0EF
:10287000FFF78EFF641C002E03DA06EB8406B61DFC
:1028800004E0601B06EB80066D1E0A36AC42B3DD29
:10289000BDE8FC8F2DE9F047624D92460C4602469A
:1028A0004FEA1129A8882946A0F513464B894FEA1B
:1028B0001228413E2BD0A0F5A641103927D0A0F513
:1028C000EE41893923D0A0F5EE4196391FD0A0F50D
:1028D000AA41103920D02E46A0F5C857B1793688C4
:1028E000B61A761E633F32D0A0F5D047043F4AD0D7
:1028F000A0F51447813F46D0A0F51447863F55D038
:10290000A0F51447883F51D0012979D079E01846C5
:1029100003F0E5F940463DE0184603F0E0F9404693
:1029200003F0D1F96889401C80B203F0D8F9D0B225
:1029300003F0C9F9A88903F0D2F9484603F0C3F9B6
:10294000A889401C80B203F0CAF9E0B254E001B992
:10295000B2B2184603F0C3F9160A304603F0B3F9D1
:10296000D0B203F0B0F9304603F0ADF9D0B203F0C5
:10297000AAF9A88903F0B3F9484603F0A4F9E0B234
:1029800003F0A1F90EE0012900D1B2B2184603F01C
:10299000A6F9100A03F097F9D0B203F094F9A889C8
:1029A00003F09DF9484603F08EF9CEE7184603F090
:1029B00096F9404603F087F9D0B203F084F92888ED
:1029C000401EC0F30F2003F07EF92878401EC0B2ED
:1029D00003F079F9A88903F082F9484603F073F906
:1029E000E0B203F070F96888401EC0F30F2003F0D6
:1029F0006AF9A878401EC0B203F065F909E0FFE764
:102A0000B2B21146184603F081F9A889214603F0B5
:102A10007DF94FF0D840298920F87E1FA0F802A048
:102A2000BDE8F087201600202DE9F04FFF4895B053
:102A30000025016841F00201016000680EA900F064
:102A4000020013904FF400400E9001200F90109060
:102A500003201190F648FEF759FDF648F6494FF06D
:102A60002044C0E900410621C0E902151021C0E957
:102A7000045185610902C561C0E909518900C0E9B5
:102A80000B5189014563C0E90E510F20CDE90705BF
:102A90003C2009900920CDE9000511200D950290F8
:102AA00003956A4607A90695E248FFF715F9322013
:102AB00006F006F80121002003F028F9322005F085
:102AC000FFFF002002F010FEDA4A47F2897550320B
:102AD00049F28649908049F2884A47F2967B49F24A
:102AE000413845F2103641F66317FF2806D3A0F5AA
:102AF0007F41FF3902D0B0F5134F7CD1D32003F0D2
:102B0000EEF802F0E7FD908002F0E4FD908002F024
:102B1000E1FD4FF6FF7101EA0020908002F0DAFD3E
:102B2000918808439080404565D0484563D0504522
:102B300061D058455FD0042003F0D1F802F0CAFDFF
:102B4000908002F0C7FD908002F0C4FD4FF6FF7147
:102B500001EA0020908002F0BDFD91880843A0F5B5
:102B60000541908052397DD0A84270D0BF2003F03B
:102B7000B6F802F0AFFD908002F0ACFD908002F05C
:102B8000A9FD908002F0A6FD4FF6FF7101EA00203A
:102B9000908002F09FFD91880843A0F5D04190807D
:102BA000043954D0A0F51441813950D0D42003F019
:102BB00096F802F08FFD908002F08CFD908002F07C
:102BC00089FD4FF6FF7101EA0020908002F082FD3E
:102BD000918808439080B04239D04FF45A4003F0B6
:102BE0007EF802F077FD90804FF45B4003F077F8B9
:102BF00002F070FD00E02AE04FF6FF7101EA0020CC
:102C000090804FF45C4003F06AF802F063FD918815
:102C100008439080B0F5004F49D0A0F5AA41103983
:102C200015D0A12003F05BF802F054FD908002F073
:102C300051FD4FF6FF7101EA0020908002F04AFD3D
:102C400091880843A0F5AE41908061392DD080B2C3
:102C5000404511D0B0420FD0A0F5AA4110390BD099
:102C6000B84200E01FE007D0A84205D0484503D095
:102C7000504501D058451ED1D4F81C0120F00F005A
:102C8000C4F81C01D4F81C0120F47060C4F81C01C5
:102C9000D4F81C0140F00300C4F81C01D4F81C0156
:102CA00040F4007025E09580E6E79780E4E745F280
:102CB00010509080E0E7A0F5D041043903D0A0F592
:102CC0004541053917D1D4F81C0120F00F00C4F894
:102CD0001C01D4F81C0120F47060C4F81C01D4F865
:102CE0001C0140F00A00C4F81C01D4F81C0140F497
:102CF0004060C4F81C014F48503081884FA0FDF758
:102D00005BFB4C485030808840457CD1CF2002F09E
:102D1000E6FF002002F0D7FFC12002F0D4FF3020F0
:102D200002F0D1FFED2002F0DAFF642002F0CBFFC9
:102D3000032002F0C8FF122002F0C5FF812002F03C
:102D4000C2FFE82002F0CBFF852002F0BCFF10207C
:102D500002F0B9FF7A2002F0B6FFCB2002F0BFFFED
:102D6000392002F0B0FF2C2002F0ADFF002002F06D
:102D7000AAFF342002F0A7FF022002F0A4FFF720F0
:102D800002F0ADFF202002F09EFFEA2002F0A7FF34
:102D9000002002F098FF002002F095FFC02002F012
:102DA0009EFF1B2002F08FFFC12002F098FF012040
:102DB00002F089FFC52002F092FF302002F083FF6D
:102DC000302002F080FFC72002F089FFB72002F018
:102DD0007AFF362002F083FF482002F074FF3A2089
:102DE00002F07DFF552002F06EFFB12002F077FF68
:102DF000002002F068FF1A2002F065FFB62002F002
:102E00006EFF0A2000E09EE002F05DFFA22002F0CB
:102E10005AFFF22002F063FF002002F054FF262048
:102E200002F05DFF012002F04EFF0FE0303802405B
:102E300000040240D0150020040100A0204C4344AF
:102E40002049443A25780D0A00000000E02002F0F5
:102E500046FF0F2002F037FF2A2002F034FF28201F
:102E600002F031FF082002F02EFF0E2002F02BFFAF
:102E7000082002F028FF542002F025FFA92002F0CC
:102E800022FF432002F01FFF0A2002F01CFF0F2048
:102E900002F019FF002002F016FF002002F013FFDD
:102EA000002002F010FF002002F00DFFE12002F0F0
:102EB00016FF002002F007FF152002F004FF172084
:102EC00002F001FF072002F0FEFE112002F0FBFEDF
:102ED000062002F0F8FE2B2002F0F5FE562002F04C
:102EE000F2FE3C2002F0EFFE052002F0ECFE102086
:102EF00002F0E9FE0F2002F0E6FE3F2002F0E3FEC2
:102F00003F2002F0E0FE0F2002F0DDFE2B2002F059
:102F1000E6FE002002F0D7FE002002F0D4FE0120E1
:102F200002F0D1FE3F2002F0CEFE2A2002F0D7FEB2
:102F3000002002F0C8FE002002F0C5FE002002F0D2
:102F4000C2FEEF20DCE2A8427ED1112002F0C7FED3
:102F5000782005F0B5FD362002F0C1FE002002F019
:102F6000B2FE3A2002F0BBFE052002F0ACFEB22019
:102F700002F0B5FE0C2002F0A6FE0C2002F0A3FE2B
:102F8000002002F0A0FE332002F09DFE332002F06C
:102F90009AFEB72002F0A3FE352002F094FEBB207B
:102FA00002F09DFE322002F08EFEC02002F097FE5D
:102FB0000C2002F088FEC22002F091FE012002F0F7
:102FC00082FEC32002F08BFE102002F07CFEC420A3
:102FD00002F085FE202002F076FEC62002F07FFE81
:102FE0000F2002F070FED02002F079FEA42002F043
:102FF0006AFEA12002F067FEE02002F070FED02001
:1030000002F061FE002002F05EFE022002F05BFE94
:10301000072002F058FE0A2002F055FE282002F098
:1030200052FE322002F04FFE442002F04CFE4220BD
:1030300002F049FE062002F046FE0E2002F043FE9A
:10304000122002F040FE00E053E0142002F03BFEAC
:10305000172002F038FEE12002F041FED02002F0FD
:1030600032FE002002F02FFE022002F02CFE07208C
:1030700002F029FE0A2002F026FE282002F023FE9C
:10308000312002F020FE542002F01DFE472002F005
:103090001AFE0E2002F017FE1C2002F014FE17206C
:1030A00002F011FE1B2002F00EFE1E2002F00BFEAD
:1030B0002A2002F014FE002002F005FE002002F09B
:1030C00002FE002002F0FFFDEF2002F0FCFD2B20AD
:1030D00002F005FE002002F0F6FD002002F0F3FDF4
:1030E000012002F0F0FD3F2002F0EDFD292002F06A
:1030F000E5BAA0F5144181397ED048457DD1F22052
:1031000002F0EDFD182002F0DEFDA32002F0DBFD51
:10311000122002F0D8FD022002F0D5FDB22002F00C
:10312000D2FD122002F0CFFDFF2002F0CCFD1020D6
:1031300002F0C9FD002002F0C6FDF82002F0CFFD2C
:10314000212002F0C0FD042002F0BDFDF92002F0B4
:10315000C6FD002002F0B7FD082002F0B4FD3620C5
:1031600002F0BDFD082002F0AEFD3A2002F0B7FDEE
:10317000052002F0A8FDB42002F0B1FD012002F00C
:10318000A2FDB62002F0ABFD022002F09CFD222041
:1031900002F099FDC12002F0A2FD412002F093FD52
:1031A000C52002F09CFD002002F08DFD072002F0FA
:1031B0008AFDE02002F093FD0F2002F084FD1F2025
:1031C00002F081FD1C2002F07EFD0C2002F07BFD50
:1031D0000F2002F078FD082002F075FD482002F073
:1031E00072FD982002F06FFD372002F06CFD0A207E
:1031F00002F069FD132001E03DE0E3E002F063FD31
:10320000042002F060FD112002F05DFD0D2002F0AF
:103210005AFD002002F057FDE12002F060FD0F2072
:1032200002F051FD322002F04EFD2E2002F04BFD47
:103230000B2002F048FD0D2002F045FD052002F0B4
:1032400042FD472002F03FFD752002F03CFD372093
:1032500002F039FD062002F036FD102002F033FDA9
:10326000032002F030FD242002F02DFD202002F08A
:103270002AFD002044E1112002F031FD142005F068
:103280001FFCD02002F02BFD072002F01CFD422085
:1032900002F019FD1C2002F016FDD12002F01FFDE6
:1032A000002002F010FD102002F00DFD102002F0B1
:1032B0000AFDD22002F013FD012002F004FD1120CE
:1032C00002F001FDE42002F00AFDA02002F0FBFC68
:1032D000F32002F004FD002002F0F5FC2A2002F0A9
:1032E000F2FCC02002F0FBFC102002F0ECFC3B20C2
:1032F00002F0E9FC002002F0E6FC022002F0E3FC10
:10330000112002F0E0FCC52002F0E9FC032002F0ED
:10331000DAFCC82002F0E3FC002002F0D4FC3520E7
:1033200002F0D1FC232002F0CEFC072002F0CBFCFF
:10333000002002F0C8FC042002F0C5FC452002F089
:10334000C2FC532002F0BFFC772002F0BCFC7020CE
:1033500002F0B9FC002002F0B6FC042002F0B3FC3D
:10336000362002F0BCFC0A2002F0ADFC3A2002F04C
:10337000B6FC552002F0A7FC2A2002F0B0FC002089
:1033800002F0A1FC002002F09EFC012002F09BFC58
:103390003F2002F098FC2B2002F0A1FC002002F05C
:1033A00092FC002002F08FFC012002F08CFCE02057
:1033B00002F089FC782005F083FB292002F08FFCC5
:1033C00001F004B950457CD1E02002F088FC0020D7
:1033D00002F079FC1B2002F076FC1F2002F073FC47
:1033E0000A2002F070FC0F2002F06DFC072002F0B2
:1033F0006AFC3C2002F067FC382002F064FC4920A3
:1034000002F061FC002002F05EFC0C2002F05BFC8C
:103410000B2002F058FC152002F055FC172002F09A
:1034200052FC0F2002F04FFCE12002F058FC00207B
:1034300002F049FC192002F046FC1B2002F043FC7C
:10344000042002F040FC0F2002F03DFC042002F0BA
:103450003AFC302002F037FC322002F034FC4020ED
:1034600002F031FC012002F02EFC072002F02BFCC0
:103470000E2002F028FC2B2002F025FC322002F066
:1034800022FC0F2002F01FFCF82002F028FC212073
:1034900002F019FC042002F016FCF92002F01FFCD7
:1034A000002002F010FC082002F00DFC362002F093
:1034B00016FC082002F007FC3A2002F010FC052060
:1034C00000E026E002F0FFFBB42002F008FC01203F
:1034D00002F0F9FBB62002F002FC022002F0F3FB3E
:1034E000222002F0F0FBC12002F0F9FB412002F0A3
:1034F000EAFBC52002F0F3FB002002F0E4FB07200A
:1035000002F0E1FB112002F0EAFB782005F0D8FA86
:10351000ECE558457ED1112002F0E1FB782005F062
:10352000CFFA362002F0DBFB482002F0CCFB3A2039
:1035300002F0D5FB552002F0C6FBF02002F0CFFBD5
:10354000C32002F0C0FBF02002F0C9FB962002F07D
:10355000BAFBB42002F0C3FB012002F0B4FBB6209A
:1035600002F0BDFB0A2002F0AEFBA22002F0ABFB92
:10357000B72002F0B4FBC62002F0A5FBB92002F090
:10358000AEFB022002F09FFBE02002F09CFBC0207B
:1035900002F0A5FB802002F096FB162002F093FBC0
:1035A000C12002F09CFB192002F08DFBC22002F02A
:1035B00096FBA72002F087FBC52002F090FB1620A7
:1035C00002F081FBE82002F08AFB402002F07BFB46
:1035D0008A2002F078FB002002F075FB002002F048
:1035E00072FB292002F06FFB192002F06CFBA52072
:1035F00002F069FB332002F066FBE02002F06FFB73
:10360000F02002F060FB072002F05DFB0D2002F0CD
:103610005AFB00E060E0042002F055FB052002F0B8
:1036200052FB142002F04FFB362002F04CFB5420DA
:1036300002F049FB4C2002F046FB382002F043FB2D
:10364000132002F040FB142002F03DFB2E2002F07C
:103650003AFB342002F037FBE12002F040FBF0207F
:1036600002F031FB102002F02EFB142002F02BFBA5
:103670000E2002F028FB0C2002F025FB082002F0AF
:1036800022FB352002F01FFB442002F01CFB4C20E3
:1036900002F019FB262002F016FB102002F013FBAB
:1036A000122002F010FB2C2002F00DFB322002F061
:1036B0000AFBF02002F013FB3C2002F004FBF02098
:1036C00002F00DFB692002F0FEFA782005F0F8F90F
:1036D000212002F004FB09E5B0427CD1ED2002F08C
:1036E000FEFA012002F0EFFAFE2002F0ECFAEE20E2
:1036F00002F0F5FADE2002F0E6FA212002F0E3FA09
:10370000F12002F0ECFA012002F0DDFADF2002F0F5
:10371000E6FA102002F0D7FAC42002F0E0FA8F2077
:1037200002F0D1FAC62002F0DAFA002002F0CBFA59
:10373000E22002F0C8FAE22002F0C5FAE22002F02C
:10374000C2FABF2002F0CBFAAA2002F0BCFAB020E5
:1037500002F0C5FA0D2002F0B6FA002002F0B3FA2A
:103760000D2002F0B0FA002002F0ADFA112002F0B4
:10377000AAFA002002F0A7FA192002F0A4FA002009
:1037800002F0A1FA212002F09EFA002002F09BFA3A
:103790002D2002F098FA002002F095FA3D2002F068
:1037A00092FA002002F08FFA5D2002F08CFA0020DD
:1037B00002F089FA5D2002F086FA002002F083FA16
:1037C000B12002F08CFA802002F07DFA002002F095
:1037D0007AFA8B2000E0FCE302F075FA002002F098
:1037E00072FA962002F06FFA002002F06CFAB22012
:1037F00002F075FA002002F066FA002002F063FA87
:10380000022002F060FA002002F05DFA032002F0CC
:103810005AFA002002F057FAB32002F060FA0020B2
:1038200002F051FA002002F04EFA002002F04BFAAA
:10383000002002F048FA002002F045FA002002F0D1
:1038400042FA002002F03FFA002002F03CFA002089
:1038500002F039FA002002F036FA002002F033FAC2
:10386000002002F030FA002002F02DFA002002F0D1
:103870002AFA002002F027FA002002F024FA0020A1
:1038800002F021FA002002F01EFA002002F01BFADA
:10389000002002F018FA002002F015FA002002F0D1
:1038A00012FA002002F00FFA002002F00CFAB42005
:1038B00002F015FA8B2002F006FA002002F003FA5B
:1038C000962002F000FA002002F0FDF9A12002F09B
:1038D000FAF9002002F0F7F9B52002F000FA022010
:1038E00002F0F1F9002002F0EEF9032002F0EBF90A
:1038F000002002F0E8F9042002F0E5F9002002F0CF
:10390000E2F9B62002F0EBF9002002F0DCF9002029
:1039100002F0D9F9B72002F0E2F9002002F0D3F961
:10392000002002F0D0F93F2002F0CDF9002002F093
:10393000CAF95E2002F0C7F9002002F0C4F9642041
:1039400002F0C1F9002002F0BEF98C2002F0BBF9B0
:10395000002002F0B8F9AC2002F0B5F9002002F026
:10396000B2F9DC2002F0AFF9002002F0ACF97020CF
:1039700002F0A9F9002002F0A6F9902002F0A3F9C4
:10398000002002F0A0F9EB2002F09DF9002002F0E7
:103990009AF9DC2002F097F9002002F094F9B8209F
:1039A00002F09DF9002002F08EF9002002F08BF960
:1039B000002002F088F9002002F085F9002002F0D2
:1039C00082F9002002F07FF9002002F07CF900204B
:1039D00002F079F9BA2002F082F9242002F073F99A
:1039E000002002F070F9002002F06DF9002002F0D2
:1039F0006AF9C12002F073F9202002F064F9002076
:103A000002F061F9542002F05EF9002002F05BF947
:103A1000FF2002F058F9002002F055F9C22002F010
:103A20005EF90A2002F04FF9002002F04CF9042060
:103A300002F049F9002002F046F9C32002F04FF9E4
:103A40003C2002F040F9002002F03DF93A2002F05B
:103A50003AF9002002F037F9392002F034F9002059
:103A600002F031F9372002F02EF9002002F02BF994
:103A70003C2002F028F9002002F025F9362002F05F
:103A800022F9002002F01FF9322002F01CF9002078
:103A900002F019F92F2002F016F9002002F013F9B4
:103AA0002C2002F010F9002002F00DF9292002F07C
:103AB0000AF9002002F007F9262002F004F900209C
:103AC00002F001F9242002F0FEF8002002F0FBF8D9
:103AD000242002F0F8F8002002F0F5F8232002F08C
:103AE000F2F8002002F0EFF83C2002F0ECF80020A1
:103AF00002F0E9F8362002F0E6F8002002F0E3F8E0
:103B0000322002F0E0F8002002F0DDF82F2002F071
:103B1000DAF8002002F0D7F82C2002F0D4F80020C8
:103B200002F0D1F8292002F0CEF8002002F0CBF804
:103B3000262002F0C8F8002002F0C5F8242002F088
:103B4000C2F8002002F0BFF8242002F0BCF80020E8
:103B500002F0B9F8232002F0B6F8002002F0B3F822
:103B6000C42002F0BCF8622002F0ADF8002002F0A0
:103B7000AAF8052002F0A7F8002002F0A4F884209B
:103B800002F0A1F8002002F09EF8F02002F09BF86D
:103B9000002002F098F8182002F095F8002002F0BA
:103BA00092F8A42002F08FF8002002F08CF8182080
:103BB00002F089F8002002F086F8502002F083F825
:103BC000002002F080F80C2002F07DF8002002F0C6
:103BD0007AF8172002F077F8002002F074F89520A8
:103BE00002F071F8002002F06EF8F32002F06BF89A
:103BF000002002F068F8E62002F065F8002002F0EC
:103C000062F8C52002F06BF8322002F05CF8002068
:103C100002F059F8442002F056F8002002F053F860
:103C2000652002F050F8002002F04DF8762002F0F6
:103C30004AF8002002F047F8882002F044F80020FB
:103C400002F041F8C62002F04AF8202002F03BF8CA
:103C5000002002F038F8172002F035F8002002F0BA
:103C600032F8012002F02FF8002002F02CF8C720D3
:103C700002F035F8002002F026F8002002F023F8C8
:103C8000002002F020F8002002F01DF8C82002F009
:103C900026F8002002F017F8002002F014F80020A7
:103CA00002F011F8002002F00EF8C92002F017F817
:103CB000002002F008F8002002F005F8002002F0D1
:103CC00002F8002001F0FFFF002001F0FCFF0020BF
:103CD00001F0F9FF002001F0F6FF002001F0F3FFF2
:103CE000002001F0F0FF002001F0EDFF002001F0C6
:103CF000EAFF002001F0E7FF002001F0E4FF0020D0
:103D000001F0E1FF002001F0DEFF002001F0DBFF09
:103D1000E02001F0E4FF162001F0D5FF002001F0C3
:103D2000D2FF1C2001F0CFFF002001F0CCFF2120AA
:103D300001F0C9FF002001F0C6FF362001F0C3FFEB
:103D4000002001F0C0FF462001F0BDFF002001F07F
:103D5000BAFF522001F0B7FF002001F0B4FF642049
:103D600001F0B1FF002001F0AEFF7A2001F0ABFFBF
:103D7000002001F0A8FF8B2001F0A5FF002001F03A
:103D8000A2FF992001F09FFF002001F09CFFA820D6
:103D900001F099FF002001F096FFB92001F093FF98
:103DA000002001F090FFC42001F08DFF002001F001
:103DB0008AFFCA2001F087FF002001F084FFD22093
:103DC00001F081FF002001F07EFFD92001F07BFF90
:103DD000002001F078FFE02001F075FF002001F0E5
:103DE00072FFF32001F06FFF002001F06CFFE12073
:103DF00001F075FF162001F066FF002001F063FF5F
:103E00001C2001F060FF002001F05DFF222001F086
:103E10005AFF002001F057FF362001F054FF002028
:103E200001F051FF452001F04EFF002001F04BFF53
:103E3000522001F048FF002001F045FF642001F00E
:103E400042FF002001F03FFF7A2001F03CFF0020FC
:103E500001F039FF8B2001F036FF002001F033FF25
:103E6000992001F030FF002001F02DFFA82001F083
:103E70002AFF002001F027FFB92001F024FF0020D5
:103E800001F021FFC42001F01EFF002001F01BFF04
:103E9000CA2001F018FF002001F015FFD22001F028
:103EA00012FF002001F00FFFD82001F00CFF0020CE
:103EB00001F009FFE02001F006FF002001F003FF00
:103EC000F32001F000FF002001F0FDFEE22001F0F0
:103ED00006FF052001F0F7FE002001F0F4FE0B20A4
:103EE00001F0F1FE002001F0EEFE1B2001F0EBFEE0
:103EF000002001F0E8FE342001F0E5FE002001F092
:103F0000E2FE442001F0DFFE002001F0DCFE4F2045
:103F100001F0D9FE002001F0D6FE612001F0D3FEB1
:103F2000002001F0D0FE792001F0CDFE002001F04C
:103F3000CAFE882001F0C7FE002001F0C4FE9720D1
:103F400001F0C1FE002001F0BEFEA62001F0BBFE84
:103F5000002001F0B8FEB72001F0B5FE002001F00E
:103F6000B2FEC22001F0AFFE002001F0ACFEC7207F
:103F700001F0A9FE002001F0A6FED12001F0A3FE71
:103F8000002001F0A0FED62001F09DFE002001F0EF
:103F90009AFEDD2001F097FE002001F094FEF32050
:103FA00001F091FE002001F08EFEE32001F097FE6B
:103FB000052001F088FE002001F085FE0A2001F0B6
:103FC00082FE002001F07FFE1C2001F07CFE00201C
:103FD00000E0FDE201F077FE332001F074FE0020E6
:103FE00001F071FE442001F06EFE002001F06BFE36
:103FF000502001F068FE002001F065FE622001F013
:1040000062FE002001F05FFE782001F05CFE0020DF
:1040100001F059FE882001F056FE002001F053FE09
:10402000972001F050FE002001F04DFEA62001F087
:104030004AFE002001F047FEB72001F044FE0020B8
:1040400001F041FEC22001F03EFE002001F03BFEE7
:10405000C72001F038FE002001F035FED12001F02C
:1040600032FE002001F02FFED52001F02CFE0020B2
:1040700001F029FEDD2001F026FE002001F023FEE4
:10408000F32001F020FE002001F01DFEE42001F0ED
:1040900026FE012001F017FE002001F014FE012091
:1040A00001F011FE002001F00EFE022001F00BFED7
:1040B000002001F008FE2A2001F005FE002001F09A
:1040C00002FE3C2001F0FFFD002001F0FCFD4B2032
:1040D00001F0F9FD002001F0F6FD5D2001F0F3FD97
:1040E000002001F0F0FD742001F0EDFD002001F052
:1040F000EAFD842001F0E7FD002001F0E4FD9320BB
:1041000001F0E1FD002001F0DEFDA22001F0DBFD69
:10411000002001F0D8FDB32001F0D5FD002001F012
:10412000D2FDBE2001F0CFFD002001F0CCFDC42067
:1041300001F0C9FD002001F0C6FDCD2001F0C3FD56
:10414000002001F0C0FDD32001F0BDFD002001F0F2
:10415000BAFDDD2001F0B7FD002001F0B4FDF32031
:1041600001F0B1FD002001F0AEFDE52001F0B7FD4A
:10417000002001F0A8FD002001F0A5FD002001F0C5
:10418000A2FD002001F09FFD022001F09CFD002017
:1041900001F099FD292001F096FD002001F093FD2A
:1041A0003C2001F090FD002001F08DFD4B2001F03E
:1041B0008AFD002001F087FD5D2001F084FD0020D4
:1041C00001F081FD742001F07EFD002001F07BFDF7
:1041D000842001F078FD002001F075FD932001F0AE
:1041E00072FD002001F06FFDA22001F06CFD0020A7
:1041F00001F069FDB32001F066FD002001F063FDD0
:10420000BE2001F060FD002001F05DFDC42001F042
:104210005AFD002001F057FDCD2001F054FD002093
:1042200001F051FDD32001F04EFD002001F04BFDC7
:10423000DC2001F048FD002001F045FDF32001F0F5
:1042400042FD002001F03FFDE62001F048FD112075
:1042500001F039FD002001F036FD342001F033FD7E
:10426000002001F030FD562001F02DFD002001F06E
:104270002AFD762001F027FD002001F024FD7720A3
:1042800001F021FD002001F01EFD662001F01BFD64
:10429000002001F018FD882001F015FD002001F03C
:1042A00012FD992001F00FFD002001F00CFDBB2054
:1042B00001F009FD002001F006FD992001F003FD49
:1042C000002001F000FD662001F0FDFC002001F05F
:1042D000FAFC552001F0F7FC002001F0F4FC552019
:1042E00001F0F1FC002001F0EEFC452001F0EBFCB8
:1042F000002001F0E8FC432001F0E5FC002001F083
:10430000E2FC442001F0DFFC002001F0DCFCE720AF
:1043100001F0E5FC322001F0D6FC002001F0D3FCD6
:10432000552001F0D0FC002001F0CDFC762001F0FA
:10433000CAFC002001F0C7FC662001F0C4FC00208C
:1043400001F0C1FC672001F0BEFC002001F0BBFCC5
:10435000672001F0B8FC002001F0B5FC872001F0D7
:10436000B2FC002001F0AFFC992001F0ACFC002071
:1043700001F0A9FCBB2001F0A6FC002001F0A3FC89
:10438000992001F0A0FC002001F09DFC772001F0B5
:104390009AFC002001F097FC442001F094FC0020DE
:1043A00001F091FC562001F08EFC002001F08BFC06
:1043B000232001F088FC002001F085FC332001F06F
:1043C00082FC002001F07FFC452001F07CFC0020F5
:1043D00001F079FCE82001F082FC002001F073FC80
:1043E000002001F070FC992001F06DFC002001F02C
:1043F0006AFC872001F067FC002001F064FC882043
:1044000001F061FC002001F05EFC772001F05BFC14
:10441000002001F058FC662001F055FC002001F05E
:1044200052FC882001F04FFC002001F04CFCAA2037
:1044300001F049FC002001F046FCBB2001F043FCE8
:10444000002001F040FC992001F03DFC002001F02B
:104450003AFC662001F037FC002001F034FC5520C6
:1044600001F031FC002001F02EFC552001F02BFC66
:10447000002001F028FC442001F025FC002001F080
:1044800022FC442001F01FFC002001F01CFC552000
:1044900001F019FC002001F016FCE92001F01FFCDE
:1044A000AA2001F010FC002001F00DFC002001F01A
:1044B0000AFC002001F007FC002001F010FCAA20FB
:1044C00001F001FCCF2001F00AFC002001F0FBFB11
:1044D000002001F0F8FB002001F0F5FB002001F0C6
:1044E000F2FB002001F0EFFB002001F0ECFB0020CC
:1044F00001F0E9FB002001F0E6FB002001F0E3FB06
:10450000002001F0E0FB002001F0DDFB002001F0C5
:10451000DAFB002001F0D7FB002001F0D4FB0020E3
:1045200001F0D1FB002001F0CEFB002001F0CBFB1D
:10453000F02001F0D4FB002001F0C5FB502001F079
:10454000C2FB002001F0BFFB002001F0BCFB0020FB
:1045500001F0B9FBF32001F0C2FB002001F0B3FB36
:10456000F92001F0BCFB062001F0ADFB102001F0AA
:10457000AAFB292001F0A7FB002001F0A4FB3A20B0
:1045800001F0ADFB552001F09EFB112001F0A7FBCF
:10459000642004F095FA292001F0A1FB352001F0F8
:1045A0009EFB002001F08FFB512001F098FBFF20C3
:1045B00001F089FB532001F092FB2C2001F083FBDA
:1045C000552001F08CFB822001F07DFB2C20FDE3C7
:1045D000A0F5AA4110397CD0B8427BD1E22001F08D
:1045E0007EFB1D2001F06FFB022001F06CFB04201C
:1045F00001F069FB642004F071FAE02001F06FFB28
:10460000012001F060FB0A2004F05AFAE02001F0DA
:1046100066FB032001F057FB0C2004F051FA012047
:1046200001F05DFB0A2004F04BFAE62001F057FB95
:104630002F2001F048FBFF2001F045FBFF2001F097
:1046400042FBB02001F04BFB202001F03CFB00209E
:1046500001F039FB032001F036FB40F21F3001F07E
:1046600032FB012001F02FFB40F2DF1001F02BFBA9
:10467000002001F028FBB42001F031FB042001F000
:1046800022FB40F21F4001F01EFB002001F01BFB4B
:104690002E2001F018FB002001F015FB002001F096
:1046A00012FB002001F00FFB002001F00CFBB620F4
:1046B00001F015FB022001F006FB4FF4037001F03E
:1046C00002FB002001F0FFFA172001F0FCFA152090
:1046D00001E070E03DE001F0F6FA002001F0F3FAAD
:1046E000002001F0F0FAF02001F0F9FA032001F0C7
:1046F000EAFA292001F0F3FAD02001F0F0FA0020C4
:1047000001F0E1FABE2001F0EAFA052001F0DBFA3F
:10471000FE2001F0D8FA012001F0D5FA002001F0C6
:10472000D2FA002001F0CFFA002001F0CCFAB82034
:1047300001F0D5FA032001F0C6FA012001F0C3FA16
:10474000BA2001F0CCFA012001F0BDFA642000F09B
:10475000D5FFFE488088404507D0B04205D0A0F57F
:10476000AA41103901D0B84217D1D4F81C0120F069
:104770000F00C4F81C01D4F81C0120F47060C4F8C8
:104780001C01D4F81C0140F00300C4F81C01D4F84B
:104790001C0140F40070C4F81C010020FDF7CCFEA1
:1047A000EB490120C1F8BC024FF6FF70FDF78AFE0D
:1047B00015B0BDE8F08F4FF470435521184601F055
:1047C000A5FA4FF20105AA21284601F09FFA4FF2FF
:1047D00002095221484601F099FA4FF2030A0821D2
:1047E000504601F093FA4FF2040B0121584601F0B4
:1047F0008DFA0D214FF4304001F088FA0D214BF273
:10480000010001F083FA0D214BF2020001F07EFA63
:1048100034214FF4364001F079FA34214BF2016033
:1048200001F074FA34214BF2026001F06FFA0D21AD
:104830004FF4314001F06AFA0D214BF2011001F002
:1048400065FA0D214BF2021001F060FA34214FF4A9
:10485000374001F05BFA34214BF2017001F056FA57
:1048600034214BF2027001F051FA00214FF4324032
:1048700001F04CFA00214BF2012001F047FA00212F
:104880004BF2022001F042FA24214FF4384001F0AB
:104890003DFA24214BF6010001F038FA24214BF6B1
:1048A000020001F033FA01214FF43F4001F02EFAEB
:1048B0000F214FF4334001F029FA0F214BF2013060
:1048C00001F024FA0F214BF2023001F01FFA3421DB
:1048D0004FF4394001F01AFA34214BF6011001F07F
:1048E00015FA34214BF6021001F010FA08214FF4AA
:1048F000354001F00BFA08214BF2015001F006FAA5
:1049000008214BF2025001F001FA03214FF442401A
:1049100001F0FCF924214FF43A4001F0F7F9242189
:104920004BF6012001F0F2F924214BF6022001F0B0
:10493000EDF900214FF43C4001F0E8F978214BF605
:10494000014001F0E3F900214BF6024001F0DEF9ED
:1049500000214FF43D4001F0D9F978214BF6015088
:1049600001F0D4F900214BF6025001F0CFF90021FB
:104970004FF43E4001F0CAF964214BF6016001F0AA
:10498000C5F900214FF4514001F0C0F933214DF237
:10499000011001F0BBF900214DF2021001F0B6F94F
:1049A00034214DF2031001F0B1F900214DF2041051
:1049B00001F0ACF93A214DF2051001F0A7F9002100
:1049C0004DF2061001F0A2F94A214DF2071001F054
:1049D0009DF900214DF2081001F098F95C214DF28B
:1049E000091001F093F900214DF20A1001F08EF93F
:1049F00081214DF20B1001F089F900214DF20C10CC
:104A000001F084F9A6214DF20D1001F07FF900218B
:104A10004DF20E1001F07AF9E5214DF20F1001F080
:104A200075F901214DF2101001F070F913214DF2CA
:104A3000111001F06BF901214DF2121001F066F92D
:104A400054214DF2131001F061F901214DF21410BF
:104A500001F05CF982214DF2151001F057F90121A6
:104A60004DF2161001F052F9CA214DF2171001F063
:104A70004DF902214DF2181001F048F900214DF2D4
:104A8000191001F043F902214DF21A1001F03EF91C
:104A900001214DF21B1001F039F902214DF21C10D9
:104AA00001F034F934214DF21D1001F02FF90221EB
:104AB0004DF21E1001F02AF967214DF21F1001F08E
:104AC00025F902214DF2201001F020F984214DF248
:104AD000211001F01BF902214DF2221001F016F90C
:104AE000A4214DF2231001F011F902214DF22410FE
:104AF00001F00CF9B7214DF2251001F007F9022160
:104B00004DF2261001F002F9CF214DF2271001F0ED
:104B1000FDF802214DF2281001F0F8F8DE214DF2E7
:104B2000291001F0F3F802214DF22A1001F0EEF8FD
:104B3000F2214DF22B1001F0E9F802214DF22C1078
:104B400001F0E4F8FE214DF22D1003E020160020C4
:104B50000080404201F0DAF803214DF22E1001F0FE
:104B6000D5F810214DF22F1001F0D0F803214DF2AD
:104B7000301001F0CBF833214DF2311001F0C6F8BE
:104B800003214DF2321001F0C1F86D214DF23310C6
:104B900001F0BCF800214FF4524001F0B7F8332186
:104BA0004DF2012001F0B2F800214DF2022001F097
:104BB000ADF834214DF2032001F0A8F800214DF2A8
:104BC000042001F0A3F83A214DF2052001F09EF8EF
:104BD00000214DF2062001F099F84A214DF20720FC
:104BE00001F094F800214DF2082001F08FF85C21CB
:104BF0004DF2092001F08AF800214DF20A2001F05F
:104C000085F881214DF20B2001F080F800214DF252
:104C10000C2001F07BF8A6214DF20D2001F076F872
:104C200000214DF20E2001F071F8E5214DF20F2028
:104C300001F06CF801214DF2102001F067F813210A
:104C40004DF2112001F062F801214DF2122001F025
:104C50005DF854214DF2132001F058F801214DF276
:104C6000142001F053F882214DF2152001F04EF886
:104C700001214DF2162001F049F8CA214DF217200A
:104C800001F044F802214DF2182001F03FF8002114
:104C90004DF2192001F03AF802214DF21A2001F0EC
:104CA00035F801214DF21B2001F030F802214DF2C0
:104CB0001C2001F02BF834214DF21D2001F026F8C4
:104CC00002214DF21E2001F021F867214DF21F2034
:104CD00001F01CF802214DF2202001F017F8842188
:104CE0004DF2212001F012F802214DF2222001F0B4
:104CF0000DF8A4214DF2232001F008F802214DF215
:104D0000242001F003F8B7214DF2252000F0FEFF2A
:104D100002214DF2262000F0F9FFCF214DF227208D
:104D200000F0F4FF02214DF2282000F0EFFFDE2119
:104D30004DF2292000F0EAFF02214DF22A2000F076
:104D4000E5FFF2214DF22B2000F0E0FF02214DF2B1
:104D50002C2000F0DBFFFE214DF22D2000F0D6FFCD
:104D600003214DF22E2000F0D1FF10214DF22F2013
:104D700000F0CCFF03214DF2302000F0C7FF3321BB
:104D80004DF2312000F0C2FF03214DF2322000F03D
:104D9000BDFF6D214DF2332000F0B8FF00214FF42C
:104DA000534000F0B3FF33214DF2013000F0AEFF6D
:104DB00000214DF2023000F0A9FF34214DF2033002
:104DC00000F0A4FF00214DF2043000E0FEE300F00B
:104DD0009DFF3A214DF2053000F098FF00214DF281
:104DE000063000F093FF4A214DF2073000F08EFFAD
:104DF00000214DF2083000F089FF5C214DF20930AE
:104E000000F084FF00214DF20A3000F07FFF812185
:104E10004DF20B3000F07AFF00214DF20C3000F023
:104E200075FFA6214DF20D3000F070FF00214DF20C
:104E30000E3000F06BFFE5214DF20F3000F066FF01
:104E400001214DF2103000F061FF13214DF21130BD
:104E500000F05CFF01214DF2123000F057FF5421A9
:104E60004DF2133000F052FF01214DF2143000F0EA
:104E70004DFF82214DF2153000F048FF01214DF227
:104E8000163000F043FFCA214DF2173000F03EFF0C
:104E900002214DF2183000F039FF00214DF2193097
:104EA00000F034FF02214DF21A3000F02FFF0121F3
:104EB0004DF21B3000F02AFF02214DF21C3000F0B1
:104EC00025FF34214DF21D3000F020FF02214DF26C
:104ED0001E3000F01BFF67214DF21F3000F016FF5F
:104EE00002214DF2203000F011FF84214DF22130DB
:104EF00000F00CFF02214DF2223000F007FFA42148
:104F00004DF2233000F002FF02214DF2243000F078
:104F1000FDFEB7214DF2253000F0F8FE02214DF2E2
:104F2000263000F0F3FECF214DF2273000F0EEFEE8
:104F300002214DF2283000F0E9FEDE214DF2293049
:104F400000F0E4FE02214DF22A3000F0DFFEF221F3
:104F50004DF22B3000F0DAFE02214DF22C3000F041
:104F6000D5FEFE214DF22D3000F0D0FE03214DF292
:104F70002E3000F0CBFE10214DF22F3000F0C6FE97
:104F800003214DF2303000F0C1FE33214DF23130BB
:104F900000F0BCFE03214DF2323000F0B7FE6D216F
:104FA0004DF2333000F0B2FE00214FF4544000F0D7
:104FB000ADFE33214DF2014000F0A8FE00214DF27C
:104FC000024000F0A3FE34214DF2034000F09EFEAB
:104FD00000214DF2044000F099FE3A214DF20540C7
:104FE00000F094FE00214DF2064000F08FFE4A21B1
:104FF0004DF2074000F08AFE00214DF2084000F01B
:1050000085FE5C214DF2094000F080FE00214DF24A
:105010000A4000F07BFE81214DF20B4000F076FE4D
:1050200000214DF20C4000F071FEA6214DF20D4022
:1050300000F06CFE00214DF20E4000F067FEE5210D
:105040004DF20F4000F062FE01214DF2104000F0E1
:105050005DFE13214DF2114000F058FE01214DF28A
:10506000124000F053FE54214DF2134000F04EFE6A
:1050700001214DF2144000F049FE82214DF215400D
:1050800000F044FE01214DF2164000F03FFECA211F
:105090004DF2174000F03AFE02214DF2184000F0A8
:1050A00035FE00214DF2194000F030FE02214DF294
:1050B0001A4000F02BFE01214DF21B4000F026FEAD
:1050C00002214DF21C4000F021FE34214DF21D4022
:1050D00000F01CFE02214DF21E4000F017FE672179
:1050E0004DF21F4000F012FE02214DF2204000F070
:1050F0000DFE84214DF2214000F008FE02214DF208
:10510000224000F003FEA4214DF2234000F0FEFDFA
:1051100002214DF2244000F0F9FDB7214DF2254067
:1051200000F0F4FD02214DF2264000F0EFFDCF210A
:105130004DF2274000F0EAFD02214DF2284000F038
:10514000E5FDDE214DF2294000F0E0FD02214DF2A7
:105150002A4000F0DBFDF2214DF22B4000F0D6FD9D
:1051600002214DF22C4000F0D1FDFE214DF22D40E8
:1051700000F0CCFD03214DF22E4000F0C7FD1021C0
:105180004DF22F4000F0C2FD03214DF2304000F0FF
:10519000BDFD33214DF2314000F0B8FD03214DF249
:1051A000324000F0B3FD6D214DF2334000F0AEFD12
:1051B00000214FF4554000F0A9FD33214DF201507C
:1051C00000F0A4FD00214DF2025000F09FFD3421BB
:1051D0004DF2035000F09AFD00214DF2045000F012
:1051E00095FD3A214DF2055000F090FD00214DF261
:1051F000065000F08BFD4A214DF2075000F086FD6D
:1052000000214DF2085000F081FD5C214DF2095063
:1052100000F07CFD00214DF20A5000F077FD812165
:105220004DF20B5000F072FD00214DF20C5000F0D9
:105230006DFDA6214DF20D5000F068FD00214DF2EC
:105240000E5000F063FDE5214DF20F5000F05EFDC1
:1052500001214DF2105000F059FD13214DF2115073
:1052600000F054FD01214DF2125000F04FFD542189
:105270004DF2135000F04AFD01214DF2145000F0A0
:1052800045FD82214DF2155000F040FD01214DF207
:10529000165000F03BFDCA214DF2175000F036FDCC
:1052A00002214DF2185000F031FD00214DF219504D
:1052B00000F02CFD02214DF21A5000F027FD0121D3
:1052C0004DF21B5000F022FD02214DF21C5000F067
:1052D0001DFD34214DF21D5000F018FD02214DF24C
:1052E0001E5000F013FD67214DF21F5000F00EFD1F
:1052F00002214DF2205000F009FD84214DF2215091
:1053000000F004FD02214DF2225000F0FFFCA42128
:105310004DF2235000F0FAFC02214DF2245000F02F
:10532000F5FCB7214DF2255000F0F0FC02214DF2C2
:10533000265000F0EBFCCF214DF2275000F0E6FCA8
:1053400002214DF2285000F0E1FCDE214DF22950FF
:1053500000F0DCFC02214DF22A5000F0D7FCF221D3
:105360004DF22B5000F0D2FC02214DF22C5000F0F7
:10537000CDFCFE214DF22D5000F0C8FC03214DF272
:105380002E5000F0C3FC10214DF22F5000F0BEFC57
:1053900003214DF2305000F0B9FC33214DF2315071
:1053A00000F0B4FC03214DF2325000F0AFFC6D214F
:1053B0004DF2335000F0AAFC00214FF4564000F0AB
:1053C000A5FC33214DF2016000F0A0FC00214DF25C
:1053D000026000F09BFC34214DF2036000F096FC6B
:1053E00000214DF2046000F091FC3A214DF205607D
:1053F00000F08CFC00214DF2066000F087FC4A2191
:105400004DF2076000F082FC00214DF2086000F0D0
:105410007DFC5C214DF2096000F078FC00214DF22A
:105420000A6000F073FC81214DF20B6000F06EFC0D
:1054300000214DF20C6000F069FCA6214DF20D60D8
:1054400000F064FC00214DF20E6000F05FFCE521ED
:105450004DF20F6000F05AFC01214DF2106000F097
:1054600055FC13214DF2116000F050FC01214DF26A
:10547000126000F04BFC54214DF2136000F046FC2A
:1054800001214DF2146000F041FC82214DF21560C3
:1054900000F03CFC01214DF2166000F037FCCA21FF
:1054A0004DF2176000F032FC02214DF2186000F05E
:1054B0002DFC00214DF2196000F028FC02214DF274
:1054C0001A6000F023FC01214DF21B6000F01EFC6D
:1054D00002214DF21C6000F019FC34214DF21D60D8
:1054E00000F014FC02214DF21E6000F00FFC672159
:1054F0004DF21F6000F00AFC02214DF2206000F026
:1055000005FC84214DF2216000F000FC02214DF2E7
:10551000226000F0FBFBA4214DF2236000F0F6FBBB
:1055200002214DF2246000F0F1FBB7214DF225601D
:1055300000F0ECFB02214DF2266000F0E7FBCF21EA
:105540004DF2276000F0E2FB02214DF2286000F0EE
:10555000DDFBDE214DF2296000F0D8FB02214DF287
:105560002A6000F0D3FBF2214DF22B6000F0CEFB5D
:1055700002214DF22C6000F0C9FBFE214DF22D609E
:1055800000F0C4FB03214DF22E6000F0BFFB1021A0
:105590004DF22F6000F0BAFB03214DF2306000F0B5
:1055A000B5FB33214DF2316000F0B0FB03214DF229
:1055B000326000F0ABFB6D214DF2336000F0A6FBD2
:1055C0005521184600F0A2FBAA2100E076E028460B
:1055D00000F09CFB5221484600F098FB0821504601
:1055E00000F094FB0021584600F090FBCC214FF4D2
:1055F000314000F08BFB00214BF2011000F086FBE4
:1056000005214FF4364000F081FB70214FF4374004
:1056100000F07CFB70214BF2017000F077FB012160
:105620004FF4384000F072FB03214BF6010000F00C
:105630006DFB03214BF6020000F068FB03214BF6E3
:10564000030000F063FB02214FF43C4000F05EFBDE
:1056500000214BF6014000F059FB00214BF60240BF
:1056600000F054FBD0214FF4494000F04FFB0221E1
:105670004CF6011000F04AFB50214CF6021000F0ED
:1056800045FB50214CF6031000F040FB50214CF636
:10569000041000F03BFB00214FF4545000F036FBA7
:1056A00055214FF4685000F031FB4FF4885000F062
:1056B00016FB782003F012FA4FF4245000F00FFB91
:1056C000FFF747B80346012000E05843491EC9B21E
:1056D000FBD2704708B54FF0D840B0F88000ADF865
:1056E0000000BDF8000008BD10B500F0F8FA052074
:1056F00003F0F4F9BDE81040FFF7ECBF10B5024627
:10570000BE2000F0ECFA052000F0DDFA104605F0AE
:1057100014FB9FED0C1B53EC112B05F05DFB05F00A
:10572000DFFA80B200F0CFFA012000F0CCFAFF20BF
:1057300000F0C9FA002000F0C6FABDE810400020D1
:1057400000F0C1BA6666666666660440F0B5914EC2
:1057500000233146B779898846F6040241F663147E
:1057600049F28145012F01D03FB11FE091421DD088
:10577000A1421BD0A94202D118E0A14216D10828AB
:1057800014D2DFE800F00406080A0C0E10120620FE
:105790000CE007200AE0042008E0052006E00120D4
:1057A00004E0002002E0032000E00220A1F5134EF7
:1057B00045F2103C45F21057BEF1410E25D0914202
:1057C00023D0614521D0B9421FD0A1421DD0A942AA
:1057D0001BD0A1F5EE4EBEF1890E16D0A1F5144EE8
:1057E000BEF1860E11D0A1F5104EBEF5916E0CD013
:1057F000A1F5EC4EBEF5CB7E07D008287DD2DFE8C0
:1058000000F0B4B6B8C1BABCBEC0082812D2DFE8F6
:1058100000F0110406080A0C0E1080230AE0402351
:1058200008E0C02306E0202304E0602302E0A02378
:1058300000E0E023B94202D14FF4585000E0362096
:10584000614505D0B94203D0A14201D043F008031D
:10585000914201D0A94201D143F00203194600F060
:1058600055FAB088A04211D0990604D531887288C3
:10587000914209D30AE0A84202D1B179012905D0A9
:1058800031887288914201D932807180B842708922
:1058900042D100F024FA002000F015FA7089401C73
:1058A00080B200F01CFA002000F00DFA7089801C14
:1058B00080B200F014FA3088401EC0F30F2000F0D0
:1058C00002FA7089C01C80B200F009FA3078401EDC
:1058D000C0B200F0F8F9B08900F001FA002000F041
:1058E000F2F9B089401C80B200F0F9F9002000F014
:1058F000EAF9B089801C80B200E043E000F0EFF9E3
:105900007088401EC0F30F2000F0DDF9B089C01C84
:1059100080B200F0E4F921E000F0E1F9002000F0AD
:10592000D2F9002000F0CFF93088401EC0F30F20DC
:1059300000F0C9F93078401EC0B200F0C4F9B08957
:1059400000F0CDF9002000F0BEF9002000F0BBF916
:105950007088401EC0F30F2000F0B5F9B078BDE8A4
:10596000F040401EC0B200F0AEB930230AE0102370
:1059700008E0202306E0382304E0282302E018236F
:1059800000E00823BDE8F040032043F4805100F01C
:10599000BDB90000201600202DE9F043DFF87C811E
:1059A0000C4602464FEA1129B8F804004146150A90
:1059B0004B89A0F51346413E2BD0A0F5A6411039E6
:1059C00027D0A0F5EE41893923D0A0F5EE419639D4
:1059D0001FD0A0F51441863920D0A0F51441883994
:1059E0001CD04146A0F5D0470E888979B61A761E9C
:1059F000043F28D0A0F51447813F24D0A0F5C85714
:105A0000633F35D0A0F5AA47103F5CD0012978D07C
:105A100078E0184600F063F928461BE0184600F0CD
:105A20005EF9284600F04FF9D0B200F04CF9B8F812
:105A30000000401EC0F30F2000F045F998F8000068
:105A4000401EC0B224E0012900D1B2B2184600F0D5
:105A500046F9100A00F037F9D0B200F034F9B8F87E
:105A60000C0000F03CF9484600F02DF9E0B226E0C9
:105A70000029D3D1B2B2184600F031F9002000F06D
:105A800022F9002000F01FF9100A00F01CF9D0B232
:105A900000F019F9B8F80C0000F021F9484600F0C0
:105AA00012F9E0B200F00FF9B8F80200401EC0F39E
:105AB0000F2000F008F998F80200401EC0B2BDE8BF
:105AC000F04300F000B9184600F009F9284600F04C
:105AD000FAF8B8F80A00401C80B200F000F9D0B221
